:020000000029D5
:10000800A000030EA1000B1D0E280B11A20AB2308E
:10001800810011280B1C11280B10210E8300A00E43
:04002800200E09009D
:1000C80082073F3406345B344F3466346D347D34F4
:1000D80007347F346F3477347C3439345E34793480
:0200E800713471
:10020000031383160F178F120F160F140313831681
:100210008701880103178316880189010313831658
:1002200081128111011581140110031383128701BA
:100230008801A201B23081000B118B168B17A3012C
:10024000A40123080A128A11642087002E2922089B
:10025000323C031D2729A201A30A212923080A3CB5
:10026000031D27293F308700A3013629A40A24084B
:0A0270000A128A1164208800272971
:04400E00D420FF3F7C
:00000001FF
