:020000000029D5
:10000800A000030EA1000B1D0E280B11A20AB2308E
:10001800810011280B1C82073F3406345B344F34AF
:1000280066346D347D3407347F346F3477347C34F0
:0800380039345E34793471346F
:10020000031383160F178F120F160F140313831681
:10021000870103178316880189010313831681124E
:100220008111011581140110031383128701A201AA
:10023000B23081000B118B168B17A301A30A230880
:100240000A128A110F2087002208323C031D24293C
:04025000A2011E29C0
:04400E00D420FF3F7C
:00000001FF
